:040000006F306019E4
:10000400370310001303F3FF1301C1FEB377B300EA
:1000140013D7450123249100939737009374F77FF6
:100024001357D501B367F7003377D30013D34601D1
:10003400232681001373F37F13D4F50113173700BC
:1000440093D5F601232811009356D60133E7E60031
:100054001315350013163600B38664406318B42CA8
:100064006350D01263100304B365C700638C052A80
:100074009385F6FF639005023306C5003335A60069
:10008400B387E700B387A7001305060093041000A5
:100094006F0000071303F07F639066029304F07F00
:1000A4006F0040219305F07F6386B420B70580007C
:1000B4003367B700938506009306800363CCB60AC2
:1000C4009306F00163CEB606130300023303B34074
:1000D400B3166700B352B60033166600B3E6560093
:1000E4003336C00033E6C6003357B7003306A600E4
:1000F4003335A6003307F700B307A700130506003E
:100104003707800033F7E7006306071A9384140067
:100114001307F07F638AE45E370780FF1307F7FF56
:10012400B3F7E70013571500137515003365A700DF
:100134001397F7013365A70093D717006F00801753
:10014400938605FE93020002B356D7001303000002
:100154006388550013030004B305B3403313B70099
:100164003366C3003336C00033E6C600130700000D
:100174006FF0DFF73366C7003336C0006FF01FFF40
:100184006382060EB3059340639E0402B3E6A700A0
:10019400638C06549386F5FF639C06003305C50003
:1001A400B387E7003336C500B387C7006FF01FEE8F
:1001B4009302F07F6392550293070700130506002C
:1001C4006FF0DFED9306F07FE308D3FEB7068000FF
:1001D400B3E7D700938605009305800363CED50665
:1001E4009305F00163C0D50493020002B382D240A8
:1001F400B3955700B353D50033155500B3E57500D7
:100204003335A00033E5A500B3D7D7003305C500C7
:10021400B387E7003336C500B387C70093040300F0
:100224006FF01FEE938506FE93030002B3D5B7006B
:10023400930200006388760093020004B386D240E0
:10024400B392D70033E5A2003335A00033E5A5000F
:10025400930700006FF09FFB33E5A7003335A00040
:100264006FF01FFF9386140093F5E67F63980508EB
:10027400B3E6A7006394040663800648B366C70028
:10028400638A06023306C500B387E7003335A60048
:10029400B387A7003707800033F7E700130506008C
:1002A400630A0700370780FF1307F7FFB3F7E70078
:1002B4009304100013777500630C07441377F5005B
:1002C400930640006306D744130745003335A7005F
:1002D400B387A700130507006F008043E38E06EC85
:1002E4003366C700E30C06DA13040000B7074000C6
:1002F400130500009304F07F6F0080419305F07FA5
:100304006382B6403306C5003335A600B387E700E1
:10031400B387A7001395F701135616003365C5007C
:1003240093D71700938406006FF0DFF8635CD00E58
:10033400631E0308B365C700E38605FE9385F6FFD5
:10034400639005023306C5403335C500B387E740E3
:10035400B387A74013050600930410006F004005FF
:100364001303F07FE38C66D29306800363C6B60A58
:100374009306F00163C8B606130300023303B340C7
:10038400B3166700B352B60033166600B3E65600E0
:100394003336C00033E6C6003357B7003306C540D2
:1003A4003335C5003387E740B307A740130506007C
:1003B400B706800033F7D700E30E07EE9386F6FF07
:1003C400B3F6D700130305006F0040219305F07FB7
:1003D400E382B4EEB70580003367B7009385060067
:1003E4006FF09FF8938605FE93020002B356D70080
:1003F400130300006388550013030004B305B340DE
:100404003313B7003366C3003336C00033E6C60087
:10041400130700006FF09FF83366C7003336C0003F
:100424006FF01FFF6388060EB302934063920404C7
:10043400B3E6A700638406369386F2FF639E060044
:100444003305A640B307F7403336A600B387C74049
:10045400138405006FF05FF09303F07F63947202DE
:1004640093070700130506009304F07F6F00000D47
:100474009306F07FE306D3FEB7068000B3E7D70008
:10048400938602009302800363C0D2089302F001B2
:1004940063C2D20493030002B383D340B3927700C0
:1004A4003354D50033157500B3E282003335A00010
:1004B40033E5A200B3D7D7003305A640B307F7400E
:1004C4003336A600B387C7409304030013840500A2
:1004D4006FF01FEE938206FE13040002B3D257009E
:1004E400930300006388860093030004B386D3401B
:1004F400B393D70033E5A3003335A00033E5A2005E
:10050400930700006FF05FFB33E5A7003335A000CD
:100514006FF01FFF9386140093F6E67F6398060836
:1005240033E3A700B366C70063920406631C0300A9
:10053400638E06269307070013050600138405003F
:100544006FF05FD7E38806D63303C540B332650046
:10055400B386E740B3865640B7028000B3F2560034
:10056400638C02003305A640B307F7403336A60078
:10057400B387C7406FF09FFC3365D3006300052445
:1005840093870600130503006FF0DFD2631C03009A
:10059400638A0622930707001305060013840500E7
:1005A4006FF0DFAFE38C06AE6FF01FD43303C540AA
:1005B400B3326500B386E740B3865640B702800085
:1005C400B3F25600638C02083303A640B307F74026
:1005D40033366600B386C74013840500638A060871
:1005E40013850600232261002320D100EF10D06080
:1005F4008326010003234100130785FF9307F001BD
:1006040063C8E70893070002B387E740B396E600A0
:10061400B357F300B3E7D7003315E300634C970AED
:1006240033079740130617009306F00163CAC60602
:10063400130700023307C740B396E700B355C5005C
:100644003315E500B3E6B6003335A00033E5A60064
:10065400B3D7C700930400006FF0DFC53365D30040
:10066400E31E05F693070000930400006F00801456
:10067400130503002322D10023206100EF10D0577B
:100684008326410003230100130505026FF0DFF602
:10069400930785FDB317F300130500006FF01FF8EF
:1006A400130717FE9305000233D7E70093060000F3
:1006B4006308B60093060004B386C640B396D70019
:1006C4003365D5003335A0003365A70093070000D8
:1006D4006FF05FF8B384E440370780FF1307F7FF38
:1006E400B3F7E7006FF01FBD93070700130506007B
:1006F400938405006FF01FBC9307070013050600E1
:100704006FF05FBB9304F07F9307000013050000B4
:100714003707800033F7E700630E07009384140063
:100724001307F07F6388E40A370780FF1307F7FF96
:10073400B3F7E7001397D701135535003365A700C6
:100744001307F07F93D73700639EE4003365F50009
:100754009307000063080500B707080013050000AD
:100764001304000013974401B706F07F9397C70062
:100774003377D70093D7C7001314F401B367F70096
:100784008320010133E787000324C100832481000F
:1007940093050700130141016780000093070700D8
:1007A40013050600938402006FF05FD993070000DD
:1007B40013050000130400006FF09FF59307000079
:1007C4006FF05FFF1305000013040000B70740003B
:1007D4006FF05FB293070000130500006FF09FF500
:1007E400130181FC232881029307050013040500EB
:1007F40013D7F50113D54501232691021393C500A0
:10080400232A11021375F57F2320E1009354C300BA
:10081400630C050A1307F07F6300E51413D7D701AF
:1008240013933400B7058000336767003367B7005C
:1008340013943700930515C09304000013D54601A3
:1008440093D7F6019393C6001375F57F2322F10025
:1008540093D3C300630E05129307F07F630EF51C58
:100864009357D60193933300B3E37700B706800020
:10087400B3E3D30093173600130515C093060000A5
:100884000326010003234100334666002324C100EC
:100894003386A5402326C100139624003366D60070
:1008A4001306F6FF9305E00063E4C51C97350000CA
:1008B4009385850A131626003306B6000326060020
:1008C4003306B6006700060033E7F4006302070A44
:1008D4002326D1002324C100638804041385040063
:1008E4002322F100EF1050318327410003268100B9
:1008F4008326C100930555FF1307C0016346B7045F
:100904001307D001130485FF3307B74033938400E2
:1009140033D7E70033676700339487009305D0C06B
:10092400B385A5406FF05FF1138507002322F10022
:10093400EF10902C8326C1000326810083274100F9
:10094400130505026FF01FFB130785FD3397E700BE
:10095400130400006FF09FFC33E7F4006302070206
:10096400138704009305F07F930430006FF01FEDAC
:100974001304000093050000930410006FF01FECB3
:10098400130400009305F07F930420006FF01FEB25
:10099400B3E7C300638E070A63800306138503006D
:1009A400232AC1002328B1002326E1002324710057
:1009B400EF109024832381000327C10083250101C4
:1009C40003264101930255FF9307C00163CE5704E8
:1009D4009306D001930785FFB3865640B393F30083
:1009E400B356D600B3E37600B317F6009306D0C02F
:1009F4003385A6406FF09FE813050600232A710093
:100A04002328B1002326E1002324C100EF10D01EC7
:100A140083234101832501010327C10003268100AB
:100A2400130505026FF01FFA930385FDB3137600D7
:100A3400930700006FF09FFBB3E7C30063820702D4
:100A4400930706001305F07F930630006FF05FE311
:100A54009303000013050000930610006FF05FE29B
:100A6400930300001305F07F930620006FF05FE10D
:100A740063E6E300631C774C636AF44C1316F701D6
:100A8400935614001313F401135717003364D6005C
:100A940093D6870193938300939787002320F100D3
:100AA40093D703012322F100B3E4760083254100A8
:100AB4009397040193D7070113050700232E6100C0
:100AC4002328F100232CE100EF10500893050500C2
:100AD400232AA1001395040113550501EF105004B6
:100AE40003278101832541002328A1001305070062
:100AF400EF10500A03264101832601011315050155
:100B040093570401B3E7A7000323C10113070600A9
:100B140063FED700B38797001307F6FF63E89700D7
:100B240063F6D7001307E6FFB387970083254100D8
:100B3400B387D740138507002320E102232E6100E9
:100B4400232CF100EF10900093050500232AA10047
:100B54001395040113550501EF10807C832781014F
:100B6400832541002328A10013850700EF1090027C
:100B74000326410113140401832601011315050101
:100B8400135404013364A4000323C10103270102A5
:100B940093070600637ED400330494009307F6FFA2
:100BA400636894006376D4009307E6FF33049400EB
:100BB40013170701B362F700832701003304D440FD
:100BC40083260100B70301001387F3FF93D70701BE
:100BD4002328F100B3F7E20033F7E600138507009A
:100BE400232AE10093050700EF108073232CA10052
:100BF4008325010113850700EF1080729307050018
:100C04009305070013D50201EF1080711307050047
:100C14008325010113D50201EF1080708326810121
:100C2400B387E70093D60601B387F60063F4E700C1
:100C34003305750083268101370701001307F7FF89
:100C440013D60701B3F7E7009397070133F7E600DC
:100C54003306A6003387E7006368C4009383020069
:100C6400631AC4046378E304832701009383F2FFC7
:100C74003303F300B337F300B38797003304F4006E
:100C840063E8840063988402832701006364F302A9
:100C94006366C40063108602637EE3008327010059
:100CA4009383E2FF3303F300B337F300B387970072
:100CB4003304F400B306E3403304C4403333D300B5
:100CC4002322D102330464409307F0FF638C841C15
:100CD400832541001305040023207102EF100067EF
:100CE40093050500232EA100139504011355050156
:100CF400EF10006383254100232CA1001305040099
:100D0400EF104069832641020327C1018327810133
:100D14001316050113D506013365C50083230102AB
:100D240013040700637EF500330595001304F7FFF1
:100D3400636895006376F5001304E7FF33059500B7
:100D440083254100B307F540138507002324D1020E
:100D5400232271022320F102EF10405F9305050066
:100D6400232EA1001395040113550501EF10405BD8
:100D74008327010283254100232CA100138507004A
:100D8400EF104061832681020326C1018322810181
:100D94001397060113150501135707013367A700BD
:100DA4008323410293070600637E570033079700AD
:100DB4009307F6FF63689700637657009307E6FF8F
:100DC40033079700131304013363F30033075740C9
:100DD4009312030193D2020183254101138502007A
:100DE400EF100054930705008325010113850200C9
:100DF400EF100053930205008325410113550301AD
:100E0400EF1000521304050083250101135503015B
:100E1400EF10005193D60701B3828200B3825600CB
:100E240063F68200B70601003305D50037060100DA
:100E34001306F6FF93D60201B3F2C20093920201A5
:100E4400B3F7C700B386A600B382F2006368D70085
:100E5400631ED72493070300638602043387E400E8
:100E64009307F3FF636897026368D700631ED72272
:100E74000326010063725602032601009307E3FF71
:100E84009315160033B6C500330696003307C70022
:100E94002320B1006316D700032701006304570021
:100EA40093E717000327C1001307F73F6358E010C7
:100EB40093F677006380060293F6F700130640006A
:100EC400638AC60093864700B3B7F600B383F30082
:100ED40093870600B7060001B3F6D300638C0600BF
:100EE400370700FF1307F7FFB3F3E3000327C1003D
:100EF400130707409306E07F63CAE6089396D3017D
:100F040093D73700B3E7F60093D33300B706F07FE7
:100F1400131747013377D700832681009393C300C7
:100F2400832041030324010393D3C3009395F60163
:100F340033677700B366B7008324C10213850700C3
:100F44009385060013018103678000008326C10096
:100F5400130300009386F6FF2326D1006FF05FB3DE
:100F64008327010093030700938604002324F100E0
:100F740093070400130730006380E6101307100082
:100F84006386E61013072000E39EE6F09303000057
:100F9400930700001307F07F6FF05FF7032741000A
:100FA4002324E1006FF01FFDB7030800930700003E
:100FB40023240100930630006FF0DFFB930610003A
:100FC400B386E640130680036342D60C1306F00191
:100FD4006348D6060327C10033D6D7009305E741FB
:100FE4003397B300B397B7003367C700B337F00044
:100FF400B367F700B3D3D30013F777006300070296
:1010040013F7F70093064000630AD700938647005E
:10101400B3B7F600B383F300938706003707800065
:1010240033F7E300631A07061397D30193D7370006
:10103400B367F70093D33300130700006FF01FED7D
:10104400130610FE3307E6401306000233D7E3000D
:10105400930500006388C6008326C1009385E64398
:10106400B395B300B3E7F500B337F000B367F70007
:10107400930300006FF05FF8B703080093070000C4
:101084001307F07F232401006FF05FE8930300004F
:10109400930700006FF05FFA9303000093070000CA
:1010A400130710006FF09FE61383070093070300F4
:1010B4006FF01FDF130141FF23241100232281005D
:1010C40023209100630605089357F54133C4A70014
:1010D4003304F4409354F50113050400EF10C031B8
:1010E4001307E0419307A0003307A74063C8A70490
:1010F4009307B000B387A74013055501B357F40015
:101104003314A400138504009397C70013174701F1
:1011140093D7C7001315F501B367F7008320810047
:1011240033E7A700130504000324410083240100CE
:10113400930507001301C10067800000130555FFE4
:10114400B317A40013850400130400006FF0DFFB41
:1011540013070000930700006FF01FFF130101FF46
:10116400370780001307F7FF13D675012324810086
:1011740013547501B377A700232291003377B70086
:101184001374F40F1376F60F232611009354F5010C
:1011940093D5F5019397370013173700B306C4406E
:1011A400639AB4186350D00A6316060263000718E2
:1011B4001386F6FF63180600B387E70013041000D4
:1011C4006F0000059305F00F6390B6021304F00F4F
:1011D4006F0080111306F00F6308C4103706000473
:1011E4003367C700138606009305B0019306100009
:1011F40063CEC50093060002B386C640B355C7004C
:101204003317D7003337E000B3E6E500B387D700E0
:101214003707000433F7E7006308070C13041400CE
:101224001307F00F6306E4303707007E93F61700C8
:101234001307F7FF93D71700B3F7E700B3E7D70017
:101244006F00800A63860606B306864063100402B4
:101254006386072C9385F6FFE38005F61305F00FEC
:101264006390A602930707006FF05FF69305F00FF3
:10127400E30AB6FEB7050004B3E7B700938506009A
:101284001305B00193061000634EB50093060002E7
:10129400B386B64033D5B700B397D700B337F00061
:1012A400B366F500B387E600130406006FF05FF63B
:1012B4009306140013F6E60F63120606631404047F
:1012C4006382072663020702B387E7003707000437
:1012D40033F7E700630A0700370700FC1307F7FF3B
:1012E400B3F7E7001304100013F77700630407242F
:1012F40013F7F70093064000630ED7229387470045
:101304006F004023E38007F6E30207EC9304000038
:10131400B70700021304F00F6F00C0211306F00F8B
:101324006386C620B387E70093D7170013840600AB
:101334006FF09FFB6350D00863120606E30807FEB4
:101344001386F6FF63180600B387E7401304100002
:101354006F0040039305F00FE38AB6E69305B001EE
:101364009306100063CEC50093060002B386C64000
:10137400B355C7003317D7003337E000B3E6E500B1
:10138400B387D740B706000433F7D700E30E07F45A
:101394009386F6FFB3F6D7006F0080111306F00FA3
:1013A400E304C4F4370600043367C7001386060059
:1013B4006FF0DFFA63800608B30686406318040200
:1013C4006382071E1385F6FF63180500B307F74011
:1013D400938405006FF09FF71303F00F6392660286
:1013E400930707001304F00F6F00C0061305F00FF6
:1013F400E308A6FE37050004B3E7A700138506003B
:101404001303B00193061000634EA3009306000279
:10141400B386A64033D3A700B397D700B337F00001
:10142400B366F300B307D7401304060093840500A2
:101434006FF05FF59306140093F6E60F639E0604BF
:1014440063120404639C0700930400006304070E02
:1014540093070700938405006FF01FE9E30607E88C
:10146400B386E7403706000433F6C600B307F740F7
:10147400E31206FE930700006384060893870600C0
:101484006FF09FE6E39207E8E30207E8930707009B
:10149400938405006FF09FD3B386E74037060004BA
:1014A40033F6C60063080604B306F74093840500C8
:1014B400138506002320D100EF0010748326010059
:1014C4001305B5FFB396A600634085043305854034
:1014D4001305150013040002B3D7A6003305A44076
:1014E400B396A600B336D000B3E7D70013040000C8
:1014F4006FF09FDFE39E06FA9307000013040000D9
:10150400930400006F000003B70700FC9387F7FF04
:101514003304A440B3F7F6006FF01FDD9307070010
:101524006FF0DFE0930707006FF01FDC1304F00F88
:10153400930700003707000433F7E700630E070042
:10154400130414001307F00F6304E406370700FCC8
:101554001307F7FFB3F7E7001307F00F93D737002C
:101564006318E40063860700B70740009304000093
:101574003705807F13147401939797003374A40084
:1015840093D797008320C100B367F400032481003C
:101594001395F40133E5A7008324410013010101ED
:1015A4006780000093070700138406006FF09FEA2A
:1015B400930700006FF05FFA93567501B707800038
:1015C4009387F7FF13D7750193F6F60F1303F00F04
:1015D40033F6A7001377F70FB3F7B7001355F501E8
:1015E40093D5F50163986600630A06061305E0FFC8
:1015F4006780000063146700E39A07FE639206069F
:101604006314070063880704630C06006314B500C1
:101614006350D702630C05021305F0FF67800000D6
:101624001305F0FF638A0500138505006780000039
:1016340063D6E600E30205FE67800000E3ECC7FC26
:10164400E36AF6FE1305000067800000130510002E
:1016540067800000E30806FE6FF0DFFBE30ED7F8B7
:10166400E31607FAE38807FA6FF05FFA93567501F9
:10167400B70780009387F7FF13D7750193F6F60F2A
:101684001303F00F33F6A7001377F70FB3F7B70080
:101694001355F50193D5F50163986600630A0606B0
:1016A400130520006780000063146700E39A07FEB7
:1016B400639206066314070063880704630C06003C
:1016C4006314B5006350D702630C05021305F0FFE1
:1016D400678000001305F0FF638A05001385050089
:1016E4006780000063D6E600E30205FE6780000021
:1016F400E3ECC7FCE36AF6FE130500006780000014
:101704001305100067800000E30806FE6FF0DFFB9E
:10171400E30ED7F8E31607FAE38807FA6FF05FFAE7
:10172400130141FE93527501232A8100232891005D
:1017340013179500232C110093F2F20F93840500E4
:10174400135797001354F501638A02089307F00FA7
:10175400638AF20A13173700B70700043367F700E8
:10176400938212F89306000013D5740193979400A2
:101774001375F50F93D7970093D4F4016304050A06
:101784001306F00F6302C50E370600049397370063
:10179400B3E7C700130515F813060000B385A200CC
:1017A4002320B1009382150093952600B3E5C5006C
:1017B4009385F5FF1305E000334394006366B50C8D
:1017C400172500001305051D93952500B385A50075
:1017D40083A50500B385A50067800500630E070295
:1017E400130507002320E100EF0010410327010047
:1017F4009307B5FF9302A0F83317F700B382A24012
:101804006FF05FF69302F00F93062000E30E07F4E7
:10181400930630006FF05FF593020000930610000A
:101824006FF09FF4638C0704138507002326E100FF
:10183400232451002322D1002320F100EF00D03BC8
:10184400832701001306B5FF83264100B397C70021
:101854001306A0F83305A640832281000327C100A4
:10186400130600006FF09FF31305F00F130620001A
:10187400E38607F2130630006FF05FF213050000F1
:10188400130610006FF09FF1B70601009383F6FF73
:101894009354070113D4070133777700B3F7770024
:1018A4001305070093850700EF0090272322A1006A
:1018B4009305040013050700EF0090262324A100DC
:1018C4009385070013850400EF0090251307050096
:1018D4009305040013850400EF00902403264100BF
:1018E4009356060103268100B307E600B386F6008B
:1018F40063F6E600B70701003305F500032741004E
:10190400B3F7760093970701B3737700B383770037
:1019140093976300B337F00093D3A30193D60601E2
:10192400B3E37700B387A60093976700B3E7770024
:101934003707000833F7E700630E070813D71700CB
:1019440093F71700B367F7001385F2076358A008ED
:1019540013F77700630A070013F7F70093064000B4
:101964006304D700938747003707000833F7E7007D
:10197400630A0700370700F81307F7FFB3F7E70018
:10198400138502081307E00F93D73700635AA70A99
:10199400930700001305F00F6F00800A130304007F
:1019A400930707001386060013072000E302E6FEF0
:1019B400130730006300E60813071000E316E6F887
:1019C40093070000130500006F00800713830400D1
:1019D4006FF09FFD832201006FF01FF713071000C3
:1019E4003307A7409306B001E3CCE6FC9382E209F7
:1019F40033D7E700B3975700B337F000B367F70066
:101A040013F77700630A070013F7F7009306400003
:101A14006304D700938747003707000433F7E700D0
:101A240093D73700E30007FA93070000130510006B
:101A34006F000001B70740001305F00F1303000007
:101A44008320810103244101131575013707807F29
:101A5400939797003375E50093D79700B367F50024
:101A64001315F3018324010133E5A7001301C10118
:101A74006780000037078000130101FF1307F7FF99
:101A840013D67501B377A700232481003377B700F9
:101A94002322910013547501232611001376F60FA7
:101AA4009306F00F1374F40F9354F50193973700D2
:101AB40093D5F501131737006314D6006314070098
:101AC40093C51500B306C440639A95186350D00AB1
:101AD40063160602630007181386F6FF63180600F0
:101AE400B387E700130410006F0000059305F00F9F
:101AF4006390B6021304F00F6F0080111306F00F09
:101B04006308C410370600043367C7001386060051
:101B14009305B0019306100063CEC500930600023E
:101B2400B386C640B355C7003317D7003337E00038
:101B3400B3E6E500B387D7003707000433F7E700BF
:101B44006308070C130414001307F00F6306E43052
:101B54003707007E93F617001307F7FF93D7170094
:101B6400B3F7E700B3E7D7006F00800A6386060681
:101B7400B3068640631004026386072C9385F6FF40
:101B8400E38005F61305F00F6390A60293070700A0
:101B94006FF05FF69305F00FE30AB6FEB705000495
:101BA400B3E7B700938506001305B0019306100050
:101BB400634EB50093060002B386B64033D5B70032
:101BC400B397D700B337F000B366F500B387E600E8
:101BD400130406006FF05FF69306140013F6E60F85
:101BE4006312060663140404638207266302070271
:101BF400B387E7003707000433F7E700630A0700F9
:101C0400370700FC1307F7FFB3F7E70013041000CE
:101C140013F777006304072413F7F70093064000D3
:101C2400630ED722938747006F004023E38007F6B3
:101C3400E30207EC93040000B70700021304F00F5B
:101C44006F00C0211306F00F6386C620B387E70038
:101C540093D71700138406006FF09FFB6350D008DE
:101C640063120606E30807FE1386F6FF63180600F0
:101C7400B387E740130410006F0040039305F00F8F
:101C8400E38AB6E69305B0019306100063CEC5005F
:101C940093060002B386C640B355C7003317D70076
:101CA4003337E000B3E6E500B387D740B706000456
:101CB40033F7D700E30E07F49386F6FFB3F6D700A5
:101CC4006F0080111306F00FE304C4F43706000418
:101CD4003367C700138606006FF0DFFA63800608D7
:101CE400B3068640631804026382071E1385F6FF59
:101CF40063180500B307F740938405006FF09FF75E
:101D04001303F00F63926602930707001304F00FA6
:101D14006F00C0061305F00FE308A6FE37050004A4
:101D2400B3E7A700138506001303B0019306100060
:101D3400634EA30093060002B386A64033D3A700E4
:101D4400B397D700B337F000B366F300B307D740B7
:101D540013040600938405006FF05FF593061400E6
:101D640093F6E60F639E060463120404639C070063
:101D7400930400006304070E93070700938405008F
:101D84006FF01FE9E30607E8B386E740370600046F
:101D940033F6C600B307F740E31206FE93070000CC
:101DA40063840608938706006FF09FE6E39207E8D2
:101DB400E30207E893070700938405006FF09FD3BD
:101DC400B386E7403706000433F6C600630806040A
:101DD400B306F74093840500138506002320D10041
:101DE400EF008061832601001305B5FFB396A600BA
:101DF4006340850433058540130515001304000270
:101E0400B3D7A6003305A440B396A600B336D000DA
:101E1400B3E7D700130400006FF09FDFE39E06FAD8
:101E24009307000013040000930400006F000003F4
:101E3400B70700FC9387F7FF3304A440B3F7F60019
:101E44006FF01FDD930707006FF0DFE093070700D3
:101E54006FF01FDC1304F00F930700003707000432
:101E640033F7E700630E0700130414001307F00FA1
:101E74006304E406370700FC1307F7FFB3F7E70032
:101E84001307F00F93D737006318E4006386070045
:101E9400B7074000930400003705807F13147401D2
:101EA400939797003374A40093D797008320C100BD
:101EB400B367F400032481001395F40133E5A7000C
:101EC4008324410013010101678000009307070088
:101ED400138406006FF09FEA930700006FF05FFA27
:101EE40037068000135775019307F6FF1377F70F32
:101EF4009305E007B3F7A7009356F50163D6E5040D
:101F04009305D00963DAE500370500801345F5FF32
:101F14003385A6006780000033E5C70093075009A6
:101F240063DCE7001307A7F63315E50063800602B8
:101F34003305A04067800000930760093387E740BA
:101F44003355E5006FF09FFE130500006780000025
:101F5400B7058000935775019386F5FF93F7F70F44
:101F64001306E007B3F6A6001357F5016352F6040F
:101F74001306F0093306E6401305F7FF63DCC702D6
:101F840013050000631807021307500933E5B60070
:101F94006358F7009387A7F63315F50067800000B0
:101FA40013076009B307F7403355F5006780000055
:101FB4001305000067800000130141FF2324110072
:101FC40023228100232091006306050E9357F541D7
:101FD40033C4A7003304F4409354F50113050400FB
:101FE400EF008041930705001305E0093305F54030
:101FF400130760096340A704130780006356F700C2
:10200400938787FF3314F400131494001315750198
:1020140013549400336485001395F40183208100E4
:102024003365A40003244100832401001301C1008B
:1020340067800000130790096350A70293065000BD
:10204400B386F6401387B701B356D4003314E400C3
:102054003334800033E48600130750006356F700DE
:102064001387B7FF3314E400370700FC1307F7FFA7
:10207400937674003377E400638A06001374F400E3
:10208400930640006304D40013074700B706000416
:10209400B376D700638C0600B70600FC9386F6FF80
:1020A4001305F0093377D7003305F540135437008F
:1020B4006FF09FF593040000130400006FF0DFF449
:1020C400135775011377F70F130141FF9307170097
:1020D400232281002320910013149500232411004E
:1020E40093F7E70F135494009354F50163820704A4
:1020F40093573400130707381314D4019397C70078
:1021040083208100131747011305040093D7C700E8
:10211400032441009394F401B367F70033E7970075
:1021240093050700832401001301C10067800000A8
:102134006316070493070000E30204FC130504007C
:10214400EF00802B9307A00063C2A7029307B0009F
:10215400B387A74013075501B357F4003314E400C1
:10216400130790383307A7406FF05FF9930755FFC3
:10217400B317F400130400006FF09FFE93070000F0
:10218400630A040093573400370708001314D4017A
:10219400B3E7E7001307F07F6FF05FF61397C5000E
:1021A40093D645019357970093F2F67F1357D501C1
:1021B4003367F7009387120093F7E77F93D5F50110
:1021C400931335006386070A138302C89307E00F4D
:1021D40063C2670C63406008930790FE6340F31288
:1021E400B70780001306E0013367F7003306664043
:1021F4009307F00163C8C702938622C8B397D3003C
:10220400B337F0003317D70033D6C300B3E7E70082
:10221400B367F6001303000013F7770063000708A1
:102224006F00400E9307E0FFB38767401305000279
:10223400B357F700930600006306A600938622CAEC
:10224400B316D700B3E67600B336D000B3E7D700B1
:102254006FF05FFC93166500B336D0001317370098
:1022640093D7D30133E7E600B367F7006FF0DFFAE3
:10227400B367770063960200B337F0006FF09FF9FD
:102284001303F00F638C070013173700B70700021E
:102294006FF09FFD930700001303F00F370700044E
:1022A40033F7E700630E0700130313001307F00F5F
:1022B4006304E306370700FC1307F7FFB3F7E700EF
:1022C4001307F00F93D737006318E3006386070002
:1022D400B707400093050000131573013707807F8B
:1022E400939797003375E50093D79700B367F5008C
:1022F4001395F50133E5A7006780000093071000EC
:102304001303000013F7F70093064000E308D7F81F
:10231400938747006FF09FF8930700006FF05FFA10
:10232400130605001305000093F6150063840600E8
:102334003305C50093D5150013161600E39605FE64
:10234400678000006340050663C605061386050022
:10235400930505001305F0FF630C060293061000B5
:10236400637AB6006358C0001316160093961600DD
:10237400E36AB6FE1305000063E6C500B385C540F5
:102384003365D50093D6160013561600E39606FE61
:102394006780000093820000EFF05FFB1385050067
:1023A400678002003305A04063D80500B305B04040
:1023B4006FF0DFF9B305B04093820000EFF01FF92E
:1023C4003305A040678002009382000063CA0500C1
:1023D400634C0500EFF09FF713850500678002004A
:1023E400B305B040E35805FE3305A040EFF01FF6F7
:1023F4003305B04067800200B7070100637AF50235
:102404009307F00FB3B7A7009397370013070002A1
:102414003307F7403355F500971700009387475B60
:102424003385A700034505003305A74067800000F6
:102434003707000193070001E36AE5FC9307800175
:102444006FF0DFFCB727014003A78740B7064000C1
:10245400558F23A4E7403727014083270740898B02
:10246400EDDF0325C7444205418182800DE92384C1
:10247400018883C68188B547014663E5D700850690
:1024840013F6F60F2384C188994763EEB7020D67EC
:102494009307472395CDB29703C5C7068280930758
:1024A4009006E3F8A7FC93971500AE978A07B385C7
:1024B400B7408D67938747238605BE95B387A500EC
:1024C40003C5E70782809D476388F5000145828044
:1024D400AA9703C5070082808D6793874723AA972D
:1024E40003C5C7078280931745003385A7400605B7
:1024F4000D6713035500898D1307C73CF942B38652
:10250400A50081473306A700B303F60083C3030085
:1025140095079506A38F76FEE39857FE0505E3100D
:1025240065FE8280B756004083D7464193F707087B
:10253400E5DF420541812398A6408280B7560040DA
:1025440083D74641918BEDDF83D70640C207C18311
:1025540093E707202390F6408280B7F700E09C477A
:1025640037F700E03E951C47898FE3CE07FE828053
:10257400AA871305F00F41111D8D26C2931415006F
:10258400269522C406C62E849314250011E4B24075
:10259400224492444101828091C737170140894601
:1025A400232AD78026853EC04D3F371701408946F0
:1025B4002328D780268555377D1482471374F40F5A
:1025C400F1B7B756004083D78641898BEDFF83D797
:1025D4000640C207C18393E707102390F640B7561D
:1025E400004083D74641858BEDDF9307800737078B
:1025F40082002398F640375600400D078357464122
:1026040083568641C207C206C182D58FF98FE397EC
:10261400E7FE8280130181FBA2C086C226DE2AD493
:102624002EC00144793F0145F53D9374F40F13E541
:10263400040BCD3D0145FD354145ED35013751379D
:1026440013050004C535938741888D663ECE938774
:10265400C1873EC4938746231317740093870723C7
:10266400BA973ED89387C1873EDA9387462302C23E
:102674003EC6A25703474100639607321306D7FBB1
:102684001376F60FF54702CC63ECC70851C89D4793
:102694006388F4089546814763F7C602130677FBFF
:1026A4001376F60F854763F0C602130617FB1376FD
:1026B400F60F894763F9C6009307B7FA93F7F70F44
:1026C400B3B7F6008D071306F4FF93162600B296EF
:1026D400024602CCB296BE9603C646009306F00F9D
:1026E4006300D6049246939527008D8F86079386C0
:1026F400D6FBBE9695476314F61C824783C7070032
:10270400139617003E96B24706063E963696B6973F
:102714000346066383C76766D18F93F7F70F3ECCF2
:10272400824783C717053EC8C246814763E5D4087C
:10273400938716003ED08256814763CE860683A5D2
:10274400818082473AD2C853EFF0CFB22AD6EFF055
:102754003F8092471375F50F1257898F3ECAD246B0
:10276400814763CA060412453ADCEFF0FF842AD29B
:10277400AA853255EFE05FE462578147634DA002BA
:1027840083A5C1803255EFE07F9DAA851255EFE005
:10279400BFE2625781476340A002824783C70705AF
:1027A40063990712C2466398D400D2471385818780
:1027B4003E9583470500E2468D450146D58F930635
:1027C400D7FF93F6F60F63EBD502824683C6260540
:1027D4009385260063C4850263E2D402024603465D
:1027E400360563110614630BB4005256B306D44085
:1027F4008A06B2961246B29603C6D6FFD18F3A85A0
:10280400A6853ECA3AC89D31D2474247C98F13F6BE
:10281400F70F014505C0824783C7670563EC97003E
:10282400930797F893F7F70F894663E5F600F247A5
:1028340003C597F8B367A6003ECA9387B4FF93F71E
:10284400F70F8546014563E0F6041307B7F81377DD
:10285400F70F994763E9E70292479387B7F83EC8B1
:1028640095476399F4108247A94503C54705F93C88
:102874009377F50F139537001D8DB2473E95C247E8
:10288400AA9703C5C766D2475D8D69399247850704
:102894003EC2F247124785073ECEA24785073EC493
:1028A40093070008E317F7DC51390504A147E31B3C
:1028B400F4D696400644F25413018104828093179F
:1028C4001600B29732468607B297B69783C78764D5
:1028D400B9B583A5818082473AD2C857EFF08F9962
:1028E400EFF00FE7C24712571D89639DF400D247EA
:1028F40093868187BE9683C70600B397A70093F794
:10290400F70F55BD82568147E317D4EAD247938621
:102914008187BE9683C70600A1463385A640B3D7F8
:10292400A740F1BF639AD400A24683C6D6FF33966C
:10293400C6001376F60FD9B585066310D402A246F5
:10294400A145918D83C6D6FFB3D6B640A24583C5B3
:1029540015003396C500558EE9BF631BB400A2462B
:10296400A1453386C54083C6160033D6C640D1B7C9
:10297400014669B58247A94583C747053E853ECCD4
:10298400F1321375F50FE247131725002A9706074E
:102994003387E74093173700998F3247BA974247F6
:1029A400BA97C5B5A25685476398F600C257124731
:1029B400BA9703C50700D1BDA6853A85453CF1B554
:1029C400B71701409843B706F1FF130141F8FD160C
:1029D40086DCA2DAA6D8758F98C383A60780FD7516
:1029E4001386F50FF18E056613050680C98E23A0A4
:1029F400D780114523A8A78083A6078037170240F4
:102A04003703200093F6F6F093E6060123A0D7805F
:102A1400894623A8D780144FBD05130606DD93E627
:102A2400160114CF544F01448D64B3E6660054CFAD
:102A340098436D8F518F98C337570040E177231225
:102A4400A740A907231EF74085472310F740953E6A
:102A54000145C93C93874423A29703C5476B0504EA
:102A6400D134C547E318F4FED13C371702401C4F5C
:102A7400372401401305800793E717201CCFB707BD
:102A84000E0085072324F440C93C83278440B726DD
:102A9400014093E787002324F44003A78640218B59
:102AA4006DFF03A786401367470023A4E640B726BB
:102AB400014083A78640918BEDFF894723AAF64204
:102AC40083A781813EC62C080545A93637170140E6
:102AD40083278780918BEDFF856785072316F10691
:102AE4002C088D4701452307F106230C0100E53A24
:102AF4002C08094505368D67138747239387472399
:102B04001304876C938447728345140003450400BF
:102B140009049385C5F993F5F50F993CE39684FE72
:102B24000345C1062C087D151375F50F6D3A9307FF
:102B340020402315F10683A741810346F106230CA7
:102B440001003EDEBEC0B2473AC8BEC2BEC483A6C0
:102B540081803EC4B6C6B6C89306000263F9C614A3
:102B640083A7C181BECABECCA30C01008347F10672
:102B74009D8BD5EBEFF01F8D930795EB1307F5E8CD
:102B8400C2074207C183418393B7770213377702A1
:102B9400D98F81EB1305B5DA4205418113357502EE
:102BA4000DC10347B10699468347A10663E4E610C5
:102BB4008E07BA979306B00263C5F6000507A3050E
:102BC400E106EFF03F889307E5F4130705F1C20728
:102BD4004207C183418393B7770213377702D98FB2
:102BE40081EB1305C5DD420541811335750211CD15
:102BF4000347B1068347A10661C78E07BA9791467A
:102C040063D5F6007D17A305E1068347910181EFA3
:102C1400B7170140938707809C47918B639F0754A4
:102C24008547A30CF1008345D1060345F106EFF077
:102C34006FF61375F50F63120540230E010402C2EB
:102C4400725516443647D64683479101AAC0A2C49A
:102C5400BAC8B6CCADEF0305C105EFE0AFC5B70701
:102C6400002003A6070083A64700EFD07FB7AA84FD
:102C740066452E84EFF0CFC42A86AE862685A285CB
:102C8400EFD00FB8EFF08FD183A401812A84A685F9
:102C9400EFE0DF9D635E05342684A5A62C08EFF0E3
:102CA4009F848347C10685072306F10649B583A798
:102CB40001824DBD8507A30501062305F10611B761
:102CC4001D47FD17A305E1062305F1063DBF924705
:102CD4001546FD1793F7F70F636DF6000D668A0727
:102CE4001306C621B2979C438287B70700803D8FA5
:102CF400BAC8C6450645EFE06FC6E645AA84AAC031
:102D04002285EFE0AFC583A541822A84AAC4268523
:102D1400EFE09F8A6345A00A83A581822285EFE0C4
:102D2400BF89634EA00883A5C1822285EFE01F946A
:102D34006347050883A501832685EFE0FF87634287
:102D4400A00E83A541832685EFE05F92634B050CBB
:102D54008347A1060347B1068E07BA9793F7F70F87
:102D64003E853ECAEFF04FA52AC0AA852285EFE032
:102D7400FF8F6348050AD24713850701EFF0CFA3FD
:102D8400AA852285EFE05F83634DA00882452285F2
:102D9400EFE05FCE83A58183EFE09F9883A5C18395
:102DA400EFE01F9883A50184EFE0DFCCEFF04F93B1
:102DB400230EA104A9451305C003EFF06FFB92474E
:102DC400850793F7F70F3EC212479D47E31AF7E6CC
:102DD40059B5B7070080B58FBECC21BFB7070080B7
:102DE4003D8FBAC8CDBF37060080B347D600318FB8
:102DF400BEC8BACCFDBDA24783A58180EFE00FB663
:102E040083A70181AAC0BEC883A78180F1B7A24766
:102E140083A58180EFE08FB483A70181AAC0BEC8D7
:102E240065BF83A541842685EFE00FF9634A050059
:102E340083A581842685EFE07F8302C06342050871
:102E440083A581842685EFE02FF7634B050083A5D6
:102E5400C1842685EFE09F8185473EC06342050615
:102E640083A5C1842685EFE02FF5634B050083A578
:102E740001852685EFE08FFF89473EC06342050444
:102E840083A501852685EFE02FF3634B050083A519
:102E940041852685EFE08FFD8D473EC063420502E4
:102EA40083A541852685EFE02FF16347051083A5AF
:102EB40081852685EFE08FFB91473EC0635E050E5A
:102EC40082472285230DF100C24783A54181EFE0AB
:102ED400AFEE634A050083A5C1852285EFE00FF9B3
:102EE4008147634D050883A5C1852285EFE0CFECBA
:102EF400634A050083A501862285EFE02FF7854705
:102F0400634E050683A501862285EFE0EFEA634A56
:102F1400050083A541862285EFE04FF58947634F7D
:102F2400050483A541862285EFE00FE9634A050085
:102F340083A581862285EFE06FF38D476340050406
:102F440083A581862285EFE02FE7634A050083A5E8
:102F5400C1862285EFE08FF191476341050283A585
:102F6400C1862285EFE04FE5634C050483A5018704
:102F74002285EFE0AFEF9547635405040247A30DA4
:102F8400F1009306F00FE308D7CCE386D7CC139770
:102F94002700BA979818BA970247BA9783C7C7FA0F
:102FA40015476392E702930520031305200DEFF004
:102FB4002FDC230C010021B59307F00F3EC009B7A5
:102FC4009307F00F65BFE388D7C8A94513056009C7
:102FD400EFF00FDA0347B1018346A10193172700ED
:102FE400BA979818BA97B6977D572386E7FAC1BB64
:102FF400A247228583A48180A685EFE0EFDBE34D21
:10300400A0C886472645A2CA3EDEC647AAC2BEC697
:10301400A24783A58180EFE0FFA52A84EFE05FF358
:1030240083A54187137575F02304A1062285EFE07B
:103034002FEFEFE0FFF1A304A1068347F106FD8B18
:1030440089E72C080145EFF0EFDC0344F106930710
:103054000003631EF4108347810109476365F70089
:103064008507230CF100725593050000EFE00FE093
:1030740063460504014705461303F00F95453C08D4
:10308400B386E700994703C54600630565006303FB
:10309400B5000146FD1793F7F70F9506EDF7050701
:1030A400E31FB7FC21EE05041374F40F096513053F
:1030B40005C2A3078106EFF04FCA4DBC9305400635
:1030C4001305800CEFF0CFCA930540061305600981
:1030D400EFF00FCA9305400613054006EFF04FC901
:1030E4009305400613052003EFF08FC88347E106DC
:1030F400E38B079CFD172307F10615BC93054006D7
:103104001305C003EFF0CFC6930540061305000571
:10311400EFF00FC69305400613054006EFF04FC5C8
:103124009305400613058007EFF08FC4930540060E
:103134001305C008EFF0CFC38347D1062147637559
:10314400F700F917A306F1062C080945EFF08FCC18
:1031540037454900130505E0EFF02FC00345C106CC
:103164009147E3FDA7B26D151375F50FDDBF930706
:10317400F003E3FA87F2054415BF0345A10683472C
:10318400B1060E053E952905EFE01FE3AAC2AAC4C5
:1031940059BC8D679387479C97D1FF1F93814166E4
:1031A4001381010013058008731005308D45739059
:1031B400458017D5FFFF1305A5E44D8D73105530D9
:1031C40073901734B707002011679387070013071C
:1031D40007AD9386818863E6D70293878188138736
:1031E400C18863E6E702B71702404147D8C3954652
:1031F40037F700E014C3984F1367470398CF730061
:10320400203010431107910723AEC7FEE9B7910799
:1032140023AE07FEF9B70000EE2C0000D62D000007
:10322400E02D0000EA2D0000FA2D0000122E00000F
:103234000505050505470F080F082F080F070D059D
:10324400050505054505050D052505070F080F08A6
:103254000F080F4705050D05250505050D0505078F
:103264000F084F080F080F270505050D050505056F
:1032740005450505070F280F080F080F0705050565
:103284004505050D05250505070F080F080F084F0F
:1032940007050D05250505050505050008000001C0
:1032A400000440000008002000000000A0A0A1A02D
:1032B400A4E0F010F810F010F0E0A8A0A0A1A0A4E1
:1032C400A0A0A0A8A0A0A0E0F018F010F110F4E0D5
:1032D400A0A0A8A0A0A0A0A0A8A0A0E1F014F01015
:1032E400F018F0E0A0A0A0A8A0A0A1A0A4A0A0A075
:1032F400E8F010F010F018F0E0A1A0A4A0A0A0A89D
:10330400A0A0A0A0E0F810F011F014F0E0A0A8A094
:10331400A0A0A0A0A8A0A00005F903FE0000000042
:10332400FEFF070303030303030307FFFE00FEABD3
:10333400ABABFE000000FFFF000000000000000037
:1033440000FFFF0000FF01FF00000000FFFF00007E
:1033540000000000000000FFFF00E0BFB0BFE0007D
:103364000000FFFF000000000000000000FFFF005D
:103374000FFA1AFA0F000000FFFF0000000000001F
:10338400000000FFFF0000FF80FF00000000FFFFBF
:10339400060606060606060606FFFF007FD5D5D5F7
:1033A4007F000000FFFF000000000000000000FF9D
:1033B400FF00A09FC07F000000007FFFE0C0C0C0EE
:1033C400C0C0C0C0E0FF7F0000010203040001028E
:1033D40003040001020304000102030400010203C8
:1033E40004000102030400010203050001020304B6
:1033F400050102030505010203040001020305009F
:10340400010203040505050505000102030400018A
:10341400020304000102030400010203040505057C
:103424000505050102030405010203050501020364
:103434000405010203040501020305050102030456
:103444000505050505000000000005050005050546
:103454000500050500000000000505050505000040
:10346400AA55AA55AA55AA55AA55AA55AA55AA5560
:10347400AA55AA55AA55AA150A050201000000007A
:10348400000000080000000000C0C0800000000030
:103494000000000002000000000000000000000026
:1034A4001000000000000000000200000000000006
:1034B4000000327F776363777F7141425A544448F6
:1034C400485050606040003870F4F0D0D0D0D6DA64
:1034D400867CF88000FE03C12121A12121C103FEC5
:1034E400AA0502FFFF0303C3030303038343434308
:1034F400438303FFFE55AA00000000000000000003
:10350400000020000000000000000D0B1B397DF3BB
:10351400E1C2CC986808C830608000000000000058
:1035240000200000000000000000000001008000F6
:103534000000A1B1B1BBBBBF9F8F9191A5A5CDCD1B
:10354400A5A5A191998F001070F0F0D0D0D0D0D063
:10355400D1D6D6E300FF0007888B888B880700FF4D
:10356400AA0000FFFF000003040404040300000099
:1035740000E700FFFF55AA00000200000000000061
:10358400000000000000C0F09C84C4340C0C936064
:103594000101C1300C0302041820C30C10E08000A8
:1035A4000000000000000002000000000000000015
:1035B40000001010B9B99F9F8F8F88081226662AC1
:1035C4003A12120202030004CCECECFC9CE4F4D4A6
:1035D400CCCC8C8400FF0000A9AABAAA910000FFF9
:1035E400AA0000FFFF0000212121212121E1214126
:1035F400418F00FFFF55AA000000000000000006F4
:103604006CD8D8D8C8E898103B478707060681606D
:103614001807000000E0D8BC72E2C42D37C10003D3
:103624000C10E080000000000001000000400000D9
:103634000000DBDBDBD9D9D9DBDFD851515252543E
:103644005458D8D0D041007171F1E1A1A1A1211148
:10365400D1E9391D00FF0000D454D655D40000FF31
:10366400AA0000FFFF000024242424A464E72422E9
:1036740022E100FFFF55EA00000000800000000086
:10368400400001217BA76FAF6EAC68E7980E112054
:1036940040800000003DFDFBFB7ABF40C03F8060DE
:1036A4001C0300FF1B260C1000400000000000005B
:1036B400000040C0E0F0F0FCFCFEA3A0B8BCB4B233
:1036C400B3B1B0B0A0E000000000000004010103A9
:1036D40006040D3E00FF00005D040404050000FF25
:1036E400AA0000FFFF0000828282818080818282A2
:1036F40082F100FFFF55EA000400042E04000400D8
:10370400400000000000010103060D1A352B56ACE1
:1037140058B061B24C83000302050281700C0300AF
:10372400C0708E81661800000000000000000000D8
:103734000000F0F8FCFCFEFE1EAFF1A9A9F9A9A94E
:10374400F1A2020408F000000000000100000000E3
:103754000000100000FF000086810101860000FFC8
:10376400AA00007FFFC0C0C0C0C0C0C0C0C0C0C0ED
:10377400C0C7C0FFFF55AA002000000000000000E1
:103784000000000000100000000000000000000025
:10379400010205060D1A355A74D8B659A8C4820315
:1037A4000703020100000000000000080000000000
:1037B400000021232767E7EFFFFEB1B2B2B3B2B234
:1037C400B1A8A8A4A3E0000004100010BA100010CF
:1037D4000000080000FF000093A8A9AA910000FFC0
:1037E400AA54A854A854A854A854A854A854A854F3
:1037F400A854A854AA55AA50A0408008000000006C
:1038040000000000000000000000000000000000B4
:103814000000100000000000000001030204010386
:103824000200000000100000000000000000000082
:1038340000000101030307070F0F111121254D4556
:10384400D5D54D4D21231E0000000080000000004E
:1038540000020000007FC0808C928C928C80C07F1C
:10386400003E0000000000003E0000000000003E9A
:103874000000000000000000013F3F3F7F00012DD9
:103884001B377F0001152B157F00011325097F00CD
:10389400010101017F007F4141417F00F090909040
:1038A4009090F0E0404040406040F01010F0808084
:1038B400F0F08080E08080F0808080F0909090F044
:1038C4008080F01010F0F09090F01010F080808064
:1038D400808080F0F09090F09090F0F08080F090F4
:1038E40090F00000A83F8D14200021007F22003FAB
:1038F400DA12A1C8AF0000007DFF7DFF00C87DFF84
:103904007DFF91FF91FF91FF91FF91FF91FF91FF47
:1039140091FF91FF91FF91FF91FF8CFF8CFF8CFF32
:103924007DFF7DFF7DFF69FF69FF69FF87FF87FFDB
:1039340087FF7DFF7DFF7DFF7DFF7DFF7DFF7DFF99
:103944007DFF007D7DFF7DFF7DFF7DFF7DFF7DFF92
:103954007DFF7DFF38D6FFFF38D7FFFF48D6FFFF36
:1039640038D7FFFF24D7FFFF38D7FFFF48D6FFFF24
:1039740038D6FFFF38D6FFFF24D7FFFF48D6FFFF16
:103984000CD6FFFF0CD6FFFF0CD6FFFF54D6FFFF6B
:1039940018E0FFFF18E0FFFF3CE0FFFF10E0FFFF2F
:1039A40010E0FFFFA4E0FFFF3CE0FFFF10E0FFFF9B
:1039B400A4E0FFFF10E0FFFF3CE0FFFF0CE0FFFF8F
:1039C4000CE0FFFF0CE0FFFFA4E0FFFF0001020298
:1039D40003030303040404040404040405050505A3
:1039E400050505050505050505050505060606067F
:1039F4000606060606060606060606060606060663
:103A0400060606060606060606060606070707074E
:103A14000707070707070707070707070707070732
:103A24000707070707070707070707070707070722
:103A34000707070707070707070707070707070712
:103A440007070707070707070707070708080808FE
:103A540008080808080808080808080808080808E2
:103A640008080808080808080808080808080808D2
:103A740008080808080808080808080808080808C2
:103A840008080808080808080808080808080808B2
:103A940008080808080808080808080808080808A2
:103AA4000808080808080808080808080808080892
:103AB4000808080808080808080808080808080882
:0C3AC40008080808080808080808080896
:103AD00000000000000059400000803F000000404E
:103AE000000080BF000000410000004285EBD13E95
:103AF000D7A3F03E0000D44200006C42000080409A
:103B00000000C0400000A040000048430000803D8D
:103B10000000C842000084420000904200009C4225
:103B20000000A8420000B4420000C04200008041F2
:103B30000000B8410000F84100002042000040426F
:103B400000005C420000003E02050200FE0D0BFE7C
:083B50007FB0D07F3E413E0032
:00000001FF
