:040000006F10806D90
:10000400130605001305000093F61500638406002B
:100014003305C50093D5150013161600E39605FEA7
:10002400678000006340050663C605061386050065
:10003400930505001305F0FF630C060293061000F8
:10004400637AB6006358C000131616009396160020
:10005400E36AB6FE1305000063E6C500B385C54038
:100064003365D50093D6160013561600E39606FEA4
:100074006780000093820000EFF05FFB13850500AA
:10008400678002003305A04063D80500B305B04083
:100094006FF0DFF9B305B04093820000EFF01FF971
:1000A4003305A040678002009382000063CA050004
:1000B400634C0500EFF09FF713850500678002008D
:1000C400B305B040E35805FE3305A040EFF01FF63A
:1000D4003305B04067800200B727014003A787407B
:1000E400B7064000558F23A4E740372701408327F4
:1000F4000740898BEDDF0325C74442054181828097
:10010400511106C4D13F930795EB1307F5E8C207D5
:1001140042071305B5DAA240C1834183420593B770
:100124007702133777024181D98F133575025D8DBC
:1001340031018280511106C44537930745E1130705
:10014400C5DDC20742071305B5DAA240C183418366
:10015400420593B77702133777024181D98F13355C
:1001640075025D8D31018280511106C4B537930744
:1001740095FB130705F1C20742071305F5E8A240F2
:10018400C1834183420593B77702133777024181D4
:10019400D98F133575025D8D3101828003C7818249
:1001A4009546014563E5E60005071375F70F2384BB
:1001B400A182828051111305B5FD26C093148501D7
:1001C400E1849387450026858D4506C422C2139495
:1001D4008701893D7515A38CA1828D452685E93556
:1001E4006205618561843335A000A38FA1828D45AA
:1001F40022850D3D620561851307D5FF238CE182BD
:1002040093171500AA97A240818F1244B337F000C8
:10021400238DF18282443101828003C7218431110C
:1002240022C893172700BA970567130707773AC4BC
:1002340093F7F70F138781843EC026C68147014395
:100244008145094491433AC20247A246B382F3402E
:100254003E9762076187369703070700014693F2CA
:10026400F20FBA841377F60F630C85046366A40057
:1002740029E53E83BA8521A08D466309D50412473A
:1002840093962500AE96BA96130700083357C740D5
:10029400658F620761873337E0009A962380E60012
:1002A40005061547E310E6FC850793F7F70FE39D72
:1002B400C7F84244B2445101828096853A83C1B75B
:1002C4003387E3409375F70F168355BF3387E340B5
:1002D4001373F70FBE8565B7511122C206C42A8471
:1002E400753DA381A18483C72184914663E9F60007
:1002F400854663E6F60291CBA387018211A8ED1728
:1003040093F7F70F8546E3E9F6FE8D47A387F1825D
:10031400230004001244A24001453101FDBDA3871E
:10032400D182FDB72A8763CF05029377F50FAD46D7
:10033400054563EAF602C94763C7B70213F57500BA
:1003440093070008B3D7A740131517002A971385FE
:1003540081843A958D85AA9503C5C5017D8D333574
:10036400A00082800145828083C791831301C1FD6F
:1003740022CE03C78183AA971384818406D026CC16
:1003840093F7F70F93025400854393158701E18592
:10039400BE84A2861303940103C606006316760284
:1003A4001395840161851ACA32C83AC63EC436C25E
:1003B4002EC08D3F9382D18482459246A247324714
:1003C40042465243854311ED8504950693F4F40F98
:1003D400E39466FC050705041377F70FE31754FA53
:1003E400014682507244E244328513014102828004
:1003F4001301C1FD03C3918322CE03C4818326CCA0
:100404002A949384818406D01374F40F9382540045
:10041400854393158401E1859A8726871386940181
:10042400834607006396760213958701618532CA75
:1004340036C83AC61AC42EC23EC0ED359382D18462
:100444008247924522433247C2465246854311EDC4
:100454008507150793F7F70FE314C7FC0504850414
:100464001374F40FE39754FA814682507244E244C1
:100474003685130141028280130181FD22D006D208
:1004840026CE83C3070032843AC41386F3FF2A9628
:10049400634B860C2A831ACC01456340640C93F4A5
:1004A400F50F13D6340063EAC60A83C517003ECAA3
:1004B40032C8B302B60036C263C1D20A1E851EC05A
:1004C400813622479302150093F2F20FBA85138501
:1004D400F2FF16C63536924642468243131705018B
:1004E400918E93F5F60F41830E061E85918C3AC4C6
:1004F4002EC23936624309049376F50F3303644000
:100504001373F30FB242338666001376F60F8243F9
:1005140092452247D24793F4F40F014563EBC2009E
:100524003385E7002A9603450600331595001375B5
:10053400F50F85C5B38376401E931373F30FBA97F3
:100544009A9783C7070063EA62002146B304964082
:10055400B3D49740458D1375F50F92500254F2446D
:100564001301810282800145CDBF511122C203D4FF
:1005740041839305400606C4228526C0453C9374F6
:10058400F50F1395140026950E0526959386C182C2
:100594000A05238196003305A440A9456134937765
:1005A400F50F1395240026950E059386C182058DBB
:1005B40013972700A380F6000A05BA97A240229554
:1005C400860712441D8D2386A182824431018280D4
:1005D400930705FF93F7F70F3147636BF7068547DA
:1005E4002A86AE86014563E7B706311126C4138314
:1005F400C1820347230085672EC293874779A145AB
:10060400414506C822C632C0853D85671383C18231
:100614001387477992460246BA87034713002A8410
:10062400A1455145913D03C7C18292460246856763
:10063400498C93874779A14561453D3D1374F40F77
:10064400C240418D3244A2441375F50F510182809A
:10065400014582808280930735F993F7F70F254788
:100664006367F706411126C206C622C49547AA84C9
:1006740001456399F50403C39182A9451A851AC0FB
:100684007532856713874779BA8795461377F50FCF
:100694002686930590021305D006F93B02432A846B
:1006A400A9451A85C13A85671377F50F938747796A
:1006B400954626869305900213052007753B418DC8
:1006C4001375F50FB24022449244410182800145E2
:1006D400828083D76183130141FD2EC289652AC4B8
:1006E400938505713E8506D422D226D03EC03D3A7C
:1006F400924622469373F50F85671E879387477941
:1007040093140501A1451305F0051ECE36C6AD337D
:10071400C180F9752A849385058F2685EFF05F8E55
:1007240082472AC29305803EB384A7002685EFF052
:100734007F8F2246B246856713874779BA87A145DA
:100744001377F50F1305300636CA32C63533498C94
:100754009377F40F930580C126853EC4EFF09F8CF8
:1007640013145500098C82470A042A940E04338317
:1007740087009247AA84930540063E931A851AC8B7
:10078400EFF05F8AD2463246856713874779BA8786
:10079400A1451377F50F1305700636CCF139A2473E
:1007A40042439305C0F95D8D9377F50F1A853EC4D6
:1007B400EFF05F87131315002A9382470E032A93E1
:1007C4000A03B302F3009247A292A945BE9216858A
:1007D4001ACA16C8EFF01F85E246324685671387AA
:1007E4004779BA87A1451377F50F1305B00636C2CA
:1007F4006131A247F243C24233E4A7008247139512
:100804002400524313974300898C3387E7408E04B6
:10081400BA941685D9559A94EFF0DF801317250002
:100824002A97324692460607269785649387447929
:100834001377F70FA1451305F00632C035399246F8
:1008440002461374F40F498C938744790147A145F8
:100854001305300715311374F40FA250418D12544F
:1008640082541375F50F1301C1028280B7560040FC
:1008740083D7464193F70708E5DF42054181239872
:10088400A6408280B756004083D74641918BEDDF66
:1008940083D70640C207C18393E707202390F6401D
:1008A4008280B7F700E09C4737F700E03E951C478D
:1008B400898FE3CE07FE8280AA871305F00F4111CA
:1008C4001D8D26C293141500269522C406C62E84B7
:1008D400931425007D141374F40F1307F00F63179A
:1008E400E400B240224492444101828091C7371708
:1008F40001408946232AD78026853EC05D373717B5
:10090400014089462328D7802685613F8247D9B78D
:1009140051117D1506C422C21375F50F914763E981
:10092400A70085679387C7750A053E951C41828792
:1009340095450D455137A9452945BD3F95450D457B
:100944001244A24031018DBF8945D5BF254493058A
:100954000005130580028D377D14930500051305EA
:1009640060091374F40F893F7DF0A24012443101F1
:100974008280130440061315140099451375E50F7E
:10098400253F2285B1450D3F7D141374F40FA9470B
:10099400E313F4FED9BF930560095145313F930534
:1009A40060091305400669BF01442285854529373E
:1009B40009041374F40F9307C00FE318F4FE75B71A
:1009C40003D541835111D14522C206C4EFF00FE68D
:1009D40083C791821375F50F6386A700A384A18250
:1009E40009453D3783C791825147636EF7001395DC
:1009F40027003E950605D1453305A040EFF08FE270
:100A04002D052388A182A240124431018280B75669
:100A1400004083D78641898BEDFF83D70640C20708
:100A2400C18393E707102390F640B756004083D75D
:100A34004641858BEDDF93078007370782002398B3
:100A4400F640375600400D0783574641835686418A
:100A5400C207C206C182D58FF98FE397E7FE828071
:100A6400511106C422C22A845D370145013513653C
:100A7400040BED3B0145DD3B4145CD3B1244A24017
:100A8400310109B58567138707775D71130707057A
:100A94009387077786C6A2C4A6C22AD43AC802C2DC
:100AA4003ECC834741003E853EC05D3F8D371305F4
:100AB40000046D3B9247624702C49E071307070672
:100AC400BA973EC6E247938707463ECAC2470346E3
:100AD4008100014483C4070083C717003ECE9307F7
:100AE40026FD93F7F70F3ED0F24763EAF408B247C6
:100AF4009384818403C507008143B367A4003ECE79
:100B040083C761843ED003C451846D141374F40FFD
:100B140002539315840193879401E185A6823ED202
:100B240083C7020005476399E702824613158301D0
:100B340093874181014761851EDE16DC32DA2ED8A7
:100B44001AD6EFF07F93F253E2525256C255325303
:100B5400B363750093F3F30F92570D039502137368
:100B6400F30FE39FF2FA0D0485049387D184137481
:100B7400F40FE39FF4F8F24733E5770079A2825744
:100B8400130730026362F706D24793958401E18527
:100B940083C727FD32D61395870161853ED2EFF0D6
:100BA4006FF8054792573256631BE50213951700F9
:100BB400939514003E95A695824695051305E50286
:100BC400E20562059387C1810147E185618532D2DF
:100BD400EFF09F8A1256B362850013F4F20F138369
:100BE40014009374F30F09B7B247814283C7070017
:100BF4003ECE9307900563F2C70C83C73184154733
:100C04006365F7141387C1803E978346070037074F
:100C14000020130747003E9703440700139727005B
:100C2400BA9793F7F70F9386C6053ED0590493F706
:100C3400F60F1374F40F814281443ED68257624703
:100C44003253A697E207E187BA9783870700931583
:100C54008401E1853ED28143125793070008B3D73C
:100C64007740F98FE207E18795CB8246131583011C
:100C7400B707002093870700014761859EC016DEF1
:100C840032DC2EDA1AD8EFF02FFFF2528643625686
:100C9400D2554253B362550093F2F20F0903850310
:100CA40095471373F30FE399F3FA8504090493F456
:100CB400F40F1374F40FE393F4F88245328516D2DB
:100CC40032D0EFF0FF909252F2470256B3645500CF
:100CD400DD8C930716FA93F7F70F614793F4F40F3B
:100CE4000145636BF7001247854763E7E7008245D8
:100CF400328532CEF93A7246824533E4A400328515
:100D04001374F40FEFF03F95418D1375F50FB93E51
:100D1400A247225785073EC4B24785073EC6D2473D
:100D240085073ECAA247E393E7DAA93E92478507BF
:100D34003EC2C247124789073EC8A147E313F7D60C
:100D4400B640264496446161828001448146F9B5E7
:100D5400797126D206D622D42AC802C0814413F45B
:100D6400F40F2285F53965311305000401368246F6
:100D74008567938707771387874836973AC293879F
:100D8400070613977400BA973EC68143C24713F609
:100D9400F30F9306300203C70700B24701439E973F
:100DA40083C707003EC4930726FD93F7F70F63E557
:100DB400F600924703C327FD8D47814263F8E70499
:100DC4008567138707779307875AA2860147F145FA
:100DD400130510031AD01ECE32CAEFF0EFE95246C3
:100DE4008567938707772ACC9387875C0147A28618
:100DF4009305400213051003EFF00FE8E24202539B
:100E0400F2435246B3E2A20093F2F20FA247130751
:100E140016FA1377F70FE14633E36700814763E27D
:100E2400E6020547636F97003285A28516CE1ACC79
:100E34001ECA32C4EFF0FF89F2426243D243224613
:100E4400AA87B3625300A28532851ECC3ECE16C457
:100E540032CAEFF0EFF7A242F2475246A285B3E757
:100E6400F200C98F93F7F70F32853EC4EFF0AFFE5F
:100E7400A2475D8D1375F50FEFF05F9F9247E24334
:100E840085073EC2850393070008E391F3F0EFF072
:100E94007F9F82478504938747023EC0024793079A
:100EA4000012E31EF7EAB250225492544561828044
:100EB4001377F50FAD4763EBE70293F7F50F494757
:100EC4006366F702130700089D8BB357F74013D7E7
:100ED4003540931515002E9593858184AA95BA956E
:100EE40003C7C50109C6D98F238EF500828093C735
:100EF400F7FFF98FD5BF211126C606CA22C82A8654
:100F0400AE8781443387970083460700054763967D
:100F1400E602939584010144E185131584016185FA
:100F24003EC432C22EC0050461371374F40F314736
:100F340082451246A247E312E4FE85044D47E3933B
:100F4400E4FCD2404244B24461018280B7170140BC
:100F54009843B706F1FF5D71FD1686C6A2C4A6C20A
:100F6400758F98C383A60780FD751386F50FF18EE0
:100F7400056613050680C98E23A0D780114523A8D2
:100F8400A78083A60780371702403703200093F613
:100F9400F6F093E6060123A0D780894623A8D780DC
:100FA400144FBD05130606DD93E6160114CF544F06
:100FB40089640144B3E6660054CF9843938484D58E
:100FC4006D8F518F98C337570040E1772312A740A4
:100FD400A907231EF74085472310F740EFF03FA3EE
:100FE4000145EFF0BF88B387840003C507000504FB
:100FF400EFF0DF87C547E318F4FEEFF0BF8837173B
:1010040002401C4F372401401305800793E7172043
:101014001CCFB7070E0085072324F440EFF07F8828
:1010240083278440B726014093E787002324F440B4
:1010340003A78640218B6DFF03A7864013674700F3
:1010440023A4E640B726014083A78640918BEDFF99
:10105400894723AAF642A3840182239A0182239B0F
:101064000182EFF0EF893EC626C822CA09C9372596
:10107400B700130505B0EFF0DF82EFF06F88138639
:101084008184A3070102014771068D45B306E6007A
:10109400B147FD172380060093F7F70F8D06F5FB84
:1010A4000507E315B7FE13878184150793878184A9
:1010B40023800700A382070023850700A387070076
:1010C400238A07008507E395E7FE238E0182A38028
:1010D4000184A38D0182054723890182A388E182CB
:1010E40023800184A3810184A38701822382018454
:1010F400A38C0182238C0182A38F0182238D018220
:10110400238F0182A38E0182A3820184238301841D
:10111400EFF01F8B81450145EFF0CF89B2472308DB
:101124000102A3840182C247239A0182239B018284
:10113400EFF0AFC30818293926C2EFF02F86B7178E
:1011440001402381A184938707809C47918B6391FD
:101154000710239601829387C182238107001145DA
:10116400EFF00FFB1305F102EFF00F9713050008E2
:10117400EFF05F913725B700130505B0EFF06FF27C
:101184001247930770032383F1849547A382F18464
:1011940002C083C4F183B5E483C721833A84639D89
:1011A400070CEFE07FFC15C583C7C183639E07501E
:1011B40005453EC4EFF0CFF5A2470546238FC18213
:1011C40089462389D182CD4663E5F6008507238EBF
:1011D400F182EFE03FF615C583C7C1836392074EE2
:1011E40005453EC4EFF0CFF2A2477D56238FC1825E
:1011F40089462389D182CD4663E5F6008507238E8F
:10120400F182EFE07FF601E9EFE0DFF209E5238EFA
:101214000182EFE0BFF8B7170140938707809C472E
:10122400918BB9CF83C7A183DD8CB9E82380018476
:1012340083C71183FD1793F7F70FA388F182D5E3D2
:101244008546A38ED18283C70183A388F18251A8E6
:1012540037150600130505AEEFF0AFE4834701032D
:101264009946014763E5F600850713F7F70F081859
:101274002308E102F13CD1B5FD172389F18251B76E
:1012840003C701848547631BF70483855184038561
:1012940061848344F102EFE0FFF18347F10203C765
:1012A400F182014563F5E700850713F5F70FA307FE
:1012B400A102EFE09FF60385F183EFF0EF8A19E5D1
:1012C4000385A183EFF0CF926308052A2685A3073F
:1012D4009102EFE09FF489472380F18483C7A183BF
:1012E400A1DB83C7B183638C0728FD1793F7F70F3E
:1012F400A38DF182EFE0DFE06306052883C7F18365
:1013040091E7238F01820547238EE182EFE01FE9F5
:1013140083C7118491E70547A38EE182A38D0182DF
:1013240083C6418419476394E61823820184814467
:101334009387818493F6F40FA697014483C507002D
:101344000546038781836393C50203C59183B385EF
:10135400E600E205229562050546E18561853ECEFB
:101364003ACC36C4B136F2476247A2460504137438
:10137400F40F15469507E313C4FC8504E39A84FA35
:1013840083D46183A14763C2E7208904D247C2049E
:10139400C180239B9182A38201842383018402D888
:1013A40002DA02DC02DE23100104230101040147F6
:1013B40001463ECC9315870181478546E185139507
:1013C400870161853AD432D236D02ECE3EC4EFE0C6
:1013D4007FF5A247F2458256125622573143CD4239
:1013E400854311E18146850793F7F70FE39967FC7D
:1013F40091C61C18BA972380770036860507E31B2D
:1014040057FA85476305F618014781470546CD46D7
:101414000C18BA9583C505006395C500850793F735
:10142400F70F0507E316D7FE03D741833E97FD1751
:10143400239AE18293F7F70F8D46014763E7F6009D
:1014440013874182BA9703C707002697239BE1823B
:101454000144EFF08F911315840185456185EFE018
:101464007FEC8544630F952005041374F40FB14792
:10147400E313F4FE124789471305F102A382F184B2
:101484006247930770032383F18403C73184238164
:10149400E184EFE07FE413050008A3809184EFF07A
:1014A4006FDEEFF0EFD113050008EFF0AFDDB717F3
:1014B4000140938707809C47918B89EB83C7018404
:1014C40091E7EFE0BFCD85472380F1848384618475
:1014D400038451842685A285EFE0DFCD83C6F183A2
:1014E40081EA0385E183EFE03FE819C1238F01829C
:1014F4000387E18385466313D71685042383918488
:1015040083846184A2852685EFE0DFCA83C7F183E3
:1015140099E3238F01820385D183EFE07FED630498
:101524000514A38E0182238E01829946130520059A
:10153400238001842382D184EFF0CFD483C6B18386
:1015440089EA8387D183FD566392D7127D14A382DF
:101554008184838551842685EFE0DFC583C7A18319
:1015640099E3A38E0182024799476316F710130586
:101574002005EFF02FD129B9EFF08FB9A9BB83C7AC
:101584000183BDB3A380018461BB850401B50C183C
:101594000545EFF05F9613052005EFF0AFCE0C186C
:1015A4000145EFF05F957D14130520051374F40FC6
:1015B400EFF04FCD69FC1545EFF08FB549478547EE
:1015C400D400BA9603C6C6FE631FF6060144930709
:1015D400F7FF51E3DC00B386870083C5C6FE0546EA
:1015E40081466387C50693178701E1873EC4139339
:1015F400860113538341014611CC931584011A8546
:10160400E18536D23AD01ACEEFE0DFD192560257B6
:1016140072432A86A2451A8536D03ACEEFF05F8906
:10162400825631467247850693F6F60FE391C6FC5F
:1016340045C37D171377F70F09C49307F4FF13F419
:10164400F70F49FBD1B33DDF7D171377F70F8DBF3C
:1016540051D09307F4FF13F4F70FADBFFD56E31118
:10166400D7EAFD1461BD23820184C9BD8546E39296
:10167400D7EE0504E9BD8247850793F7F70F3EC00F
:1016840009BE13050008EFF0EFBF1304400613155D
:10169400140099451375E50FEFF00FA22285B145AB
:1016A400EFF08FA17D141374F40FA947E311F4FE36
:1016B40037356E0113050560EFF0AF9E6FF03F9C68
:1016C400D146E39AD7B215B6D146E39ED7AEF5B468
:1016D4002DF41DBB8567938707F597F1FF1F938151
:1016E40021121381010013058008731005308D4504
:1016F4007390458017F5FFFF130585904D8D73108A
:10170400553073901734B707002009679387070093
:101714001307C7D69386818263E6D70293878182B3
:101724001387818863E6E702B71702404147D8C3AD
:10173400954637F700E014C3984F1367470398CFD3
:101744007300203010431107910723AEC7FEE9B799
:10175400910723AE07FEF9B74C09000050090000B9
:10176400760900009A090000AC090000002070000E
:101774000000003030000000306000001030200015
:1017840020202020000020206000002020300000C5
:1017940004011F111F00001F00001D151700111563
:1017A4001F0007041F0017151D001F151D00011D34
:1017B40003001F151F0017151F000000000200047E
:1017C40003070609090C0B0F0E111113FC02F9F59E
:1017D4001D0D0D0D0D0B071F3F202F2F3F223F2006
:1017E4003933203F202A2E3F2D2A2A361F070B0D7E
:1017F4000D0D0D1DF5F902FCF800400040400040BD
:101804004000404000404000404000404000404014
:10181400004040004040004040004040004000F88C
:10182400FC02F9F51D0D0D0B071F3F2D2A2A363F2B
:10183400312E2E3F312E2E313F203A322D3F202A99
:101844002E3F1F070B0D0D1DF5F902FCFF007FBF96
:10185400E0C0C0C0C0C0C0C0C0C0C0C0C0C0C0C064
:10186400C0C0C0C0C0C0C0C0C0C0C0C0C0C0C0C074
:10187400C0C0C0E0BF7F00FFFF0000000000000008
:101884000000000000000000000000000000000054
:10189400000000000000000000000000000000FF45
:1018A400FF007FBFE0C0C0C0C0C0C0C0C0C0C0C0D7
:1018B400C0C0C0C0C0C0C0C0C0C0C0C0C0C0C0C024
:1018C400C0C0C0C0C0C0C0E0BF7F00FF0001FA5A62
:1018D4007A5ADA5A7A5ADA5A7A5ADADA7A5ADA5A64
:1018E4007A5ADA5A7A5ADA5A7A5ADA5A7A5ADA5AD4
:1018F4007A5ADA5A7AFA0100FF0000000000000068
:1019040000000000000000000000000000000000D3
:10191400000000000000000000000000000000FFC4
:101924000001FAFA5A5A5A7A5A5A5A7A5A5A5A7A26
:101934005A5A5A7A5A5A5A7ADADA5A7A5ADA5A7A03
:101944005ADA5A7A5ADA5A7A5AFA01000000FF55DA
:101954007755DD557755DDF5FF3F07E0FCBCE081A9
:10196400071D7DD57755DD557755DD557755DD5503
:101974007755DD5577FF0000FF00000000000000F0
:101984000000000000000000000000000000000053
:10199400000000000000000000000000000000FF44
:1019A4000000FF00FEFD0703030303030303030317
:1019B400030303030307FDFE0001FFF7D5DDD5F79D
:1019C400D5DDD5F7D5DDD57755FF00000000FF55EF
:1019D4007755DDF57F3F8FC3F0DCBFF7EFFDEAD726
:1019E400BCF04081071D753F87F181030F35DD553C
:1019F4007755DD5577FF0000FF0000000000000070
:101A040000000000000000000000000000000000D2
:101A1400000000000000000000000000000000FFC3
:101A24000000FF00FFFF00000000000000000000B5
:101A3400000000FC7EC25E7E42525A7E625E627E7E
:101A440042525A7EC25EFC0103FF00000000FF55B3
:101A54007755DF577CF8E1042AEEDA4E0A0A0E1AAB
:101A6400AE0A0501C060786F5F7E756F5860C00371
:101A74000F75DD5577FF0000FF0000000000000037
:101A84000000000000000000000000000000000052
:101A9400000000000000000000000000000000FF43
:101AA4000000FF7873E5676666E666666EFEFE0E06
:101AB40006C600FFFF8000000000000000000000D8
:101AC4000000000080FFFF0000FF000000000F1571
:101AD40017951D15971F9F0009BF3A952000910087
:101AE400AA0000800285372D9507850D3785028071
:101AF400181C9F15170F0000FF00000000000000D5
:101B040000000000000000000000000000000000D1
:101B1400000000000000000000000000000000FFC2
:101B240000000F17159D1517951D9517157F3F80FC
:101B3400001D94199A131393139313177F3F87036C
:101B44001393139313129110180F00000000000058
:101B5400060F0D1F1D161F1D1F1D363F3D7F7D7671
:101B6400FFFDFFFD767F7D3F3D361F1D1F1D161FA8
:101B74001D0F0D0600000000FF80808080808080A3
:101B84008080808080808080808080808080808051
:101B9400808080808080808080808080808080FFC2
:101BA40000000000060F0D1F1D161F1D1F1D363FD0
:101BB4003D7F7D76FFFDFFFD767F7D3F3D361F1D1A
:101BC4001F1D161F1D0F0D06000000000000000160
:101BD40001010202020303030404040505050606C9
:101BE400060707070808080909090A0A0A0B0B0B64
:101BF4000C0C0C00D5F8F4EA547A5568747A546ADB
:101C04005578746A547A5568747A546A5578746A43
:101C1400547A5568F4FAD4EAFF0100020282FE8283
:101C2400020288FA8000F8100808F0001860C03832
:101C340088A0A8A828282808080801FFFF00040491
:101C44000414141454545050440404FC040404F0C4
:101C540022120110F400002050509000000000FFF8
:101C6400FF00000000804040004040C0404001812F
:101C74004140800100C0404181014041C1414000D8
:101C8400000000FFFF000000000112120C00001F02
:101C94000000001F02021F00001F060A11000000BE
:101CA4001F000000000000FFFF000000F0B050889B
:101CB40088C8505020206060B0901018089898A4EC
:101CC400E446E4E4E8F8F0F0000000FFFF00000060
:101CD40003060D1A3F6BD6AA54F8FCFCFEFEAB7F3C
:101CE4007F3F3F1F0F0D070703030101000000FFA3
:101CF4001F3C3838303030303030303133373331C6
:101D040031303030303030303030303030303030CE
:101D140038383C1F1E01FE010101010101010101CE
:101D2400010101010101010101010101010101019F
:101D3400010101FE1E010304040404040404040458
:101D4400040404040404040404040404040404044F
:101D540004040403A83F8D14200021007F22003FC7
:081D6400DA12A1C8AF00000073
:101D6C000201C0C001FF00000100000001000100E1
:101D7C00010100000301E0E0E000000003010705A1
:081D8C00070000000205080C2D
:00000001FF
